{
  "_format": "hh-sol-artifact-1",
  "contractName": "ReportRegistry",
  "sourceName": "contracts/ReportRegistry.sol",
  "abi": [
    {
      "inputs": [
        {
          "internalType": "address",
          "name": "_regulator",
          "type": "address"
        }
      ],
      "stateMutability": "nonpayable",
      "type": "constructor"
    },
    {
      "inputs": [
        {
          "internalType": "address",
          "name": "owner",
          "type": "address"
        }
      ],
      "name": "OwnableInvalidOwner",
      "type": "error"
    },
    {
      "inputs": [
        {
          "internalType": "address",
          "name": "account",
          "type": "address"
        }
      ],
      "name": "OwnableUnauthorizedAccount",
      "type": "error"
    },
    {
      "inputs": [],
      "name": "ReentrancyGuardReentrantCall",
      "type": "error"
    },
    {
      "anonymous": false,
      "inputs": [
        {
          "indexed": false,
          "internalType": "string",
          "name": "reportId",
          "type": "string"
        },
        {
          "indexed": true,
          "internalType": "address",
          "name": "issuer",
          "type": "address"
        },
        {
          "indexed": false,
          "internalType": "uint256",
          "name": "discrepancyBps",
          "type": "uint256"
        }
      ],
      "name": "AnomalyFlagged",
      "type": "event"
    },
    {
      "anonymous": false,
      "inputs": [
        {
          "indexed": true,
          "internalType": "address",
          "name": "previousOwner",
          "type": "address"
        },
        {
          "indexed": true,
          "internalType": "address",
          "name": "newOwner",
          "type": "address"
        }
      ],
      "name": "OwnershipTransferred",
      "type": "event"
    },
    {
      "anonymous": false,
      "inputs": [
        {
          "indexed": false,
          "internalType": "string",
          "name": "reportId",
          "type": "string"
        },
        {
          "indexed": true,
          "internalType": "address",
          "name": "issuer",
          "type": "address"
        },
        {
          "indexed": false,
          "internalType": "uint256",
          "name": "epoch",
          "type": "uint256"
        },
        {
          "indexed": false,
          "internalType": "bytes32",
          "name": "reportHash",
          "type": "bytes32"
        },
        {
          "indexed": false,
          "internalType": "bool",
          "name": "anomalyFlagged",
          "type": "bool"
        }
      ],
      "name": "ReportPublished",
      "type": "event"
    },
    {
      "anonymous": false,
      "inputs": [
        {
          "indexed": true,
          "internalType": "address",
          "name": "submitter",
          "type": "address"
        }
      ],
      "name": "SubmitterAuthorized",
      "type": "event"
    },
    {
      "inputs": [
        {
          "internalType": "address",
          "name": "submitter",
          "type": "address"
        }
      ],
      "name": "authorizeSubmitter",
      "outputs": [],
      "stateMutability": "nonpayable",
      "type": "function"
    },
    {
      "inputs": [
        {
          "internalType": "address",
          "name": "",
          "type": "address"
        }
      ],
      "name": "authorizedSubmitters",
      "outputs": [
        {
          "internalType": "bool",
          "name": "",
          "type": "bool"
        }
      ],
      "stateMutability": "view",
      "type": "function"
    },
    {
      "inputs": [
        {
          "internalType": "address",
          "name": "issuer",
          "type": "address"
        }
      ],
      "name": "getIssuerReports",
      "outputs": [
        {
          "internalType": "string[]",
          "name": "",
          "type": "string[]"
        }
      ],
      "stateMutability": "view",
      "type": "function"
    },
    {
      "inputs": [
        {
          "internalType": "address",
          "name": "issuer",
          "type": "address"
        }
      ],
      "name": "getLatestReport",
      "outputs": [
        {
          "components": [
            {
              "internalType": "string",
              "name": "reportId",
              "type": "string"
            },
            {
              "internalType": "address",
              "name": "issuer",
              "type": "address"
            },
            {
              "internalType": "uint256",
              "name": "epoch",
              "type": "uint256"
            },
            {
              "internalType": "bytes32",
              "name": "reportHash",
              "type": "bytes32"
            },
            {
              "internalType": "bytes32",
              "name": "attestationHash",
              "type": "bytes32"
            },
            {
              "internalType": "string",
              "name": "ipfsCid",
              "type": "string"
            },
            {
              "internalType": "uint256",
              "name": "discrepancyBps",
              "type": "uint256"
            },
            {
              "internalType": "bool",
              "name": "anomalyFlagged",
              "type": "bool"
            },
            {
              "internalType": "uint256",
              "name": "timestamp",
              "type": "uint256"
            },
            {
              "internalType": "address",
              "name": "submitter",
              "type": "address"
            }
          ],
          "internalType": "struct ReportRegistry.ReportRecord",
          "name": "",
          "type": "tuple"
        }
      ],
      "stateMutability": "view",
      "type": "function"
    },
    {
      "inputs": [
        {
          "internalType": "string",
          "name": "reportId",
          "type": "string"
        }
      ],
      "name": "getReport",
      "outputs": [
        {
          "components": [
            {
              "internalType": "string",
              "name": "reportId",
              "type": "string"
            },
            {
              "internalType": "address",
              "name": "issuer",
              "type": "address"
            },
            {
              "internalType": "uint256",
              "name": "epoch",
              "type": "uint256"
            },
            {
              "internalType": "bytes32",
              "name": "reportHash",
              "type": "bytes32"
            },
            {
              "internalType": "bytes32",
              "name": "attestationHash",
              "type": "bytes32"
            },
            {
              "internalType": "string",
              "name": "ipfsCid",
              "type": "string"
            },
            {
              "internalType": "uint256",
              "name": "discrepancyBps",
              "type": "uint256"
            },
            {
              "internalType": "bool",
              "name": "anomalyFlagged",
              "type": "bool"
            },
            {
              "internalType": "uint256",
              "name": "timestamp",
              "type": "uint256"
            },
            {
              "internalType": "address",
              "name": "submitter",
              "type": "address"
            }
          ],
          "internalType": "struct ReportRegistry.ReportRecord",
          "name": "",
          "type": "tuple"
        }
      ],
      "stateMutability": "view",
      "type": "function"
    },
    {
      "inputs": [
        {
          "internalType": "address",
          "name": "",
          "type": "address"
        },
        {
          "internalType": "uint256",
          "name": "",
          "type": "uint256"
        }
      ],
      "name": "issuerReports",
      "outputs": [
        {
          "internalType": "string",
          "name": "",
          "type": "string"
        }
      ],
      "stateMutability": "view",
      "type": "function"
    },
    {
      "inputs": [],
      "name": "owner",
      "outputs": [
        {
          "internalType": "address",
          "name": "",
          "type": "address"
        }
      ],
      "stateMutability": "view",
      "type": "function"
    },
    {
      "inputs": [
        {
          "components": [
            {
              "internalType": "string",
              "name": "reportId",
              "type": "string"
            },
            {
              "internalType": "address",
              "name": "issuer",
              "type": "address"
            },
            {
              "internalType": "uint256",
              "name": "epoch",
              "type": "uint256"
            },
            {
              "internalType": "bytes32",
              "name": "reportHash",
              "type": "bytes32"
            },
            {
              "internalType": "bytes32",
              "name": "attestationHash",
              "type": "bytes32"
            },
            {
              "internalType": "string",
              "name": "ipfsCid",
              "type": "string"
            },
            {
              "internalType": "uint256",
              "name": "discrepancyBps",
              "type": "uint256"
            },
            {
              "internalType": "bool",
              "name": "anomalyFlagged",
              "type": "bool"
            },
            {
              "internalType": "uint256",
              "name": "timestamp",
              "type": "uint256"
            },
            {
              "internalType": "address",
              "name": "submitter",
              "type": "address"
            }
          ],
          "internalType": "struct ReportRegistry.ReportRecord",
          "name": "record",
          "type": "tuple"
        }
      ],
      "name": "publishReport",
      "outputs": [],
      "stateMutability": "nonpayable",
      "type": "function"
    },
    {
      "inputs": [],
      "name": "regulatorAddress",
      "outputs": [
        {
          "internalType": "address",
          "name": "",
          "type": "address"
        }
      ],
      "stateMutability": "view",
      "type": "function"
    },
    {
      "inputs": [],
      "name": "renounceOwnership",
      "outputs": [],
      "stateMutability": "nonpayable",
      "type": "function"
    },
    {
      "inputs": [],
      "name": "reportCount",
      "outputs": [
        {
          "internalType": "uint256",
          "name": "",
          "type": "uint256"
        }
      ],
      "stateMutability": "view",
      "type": "function"
    },
    {
      "inputs": [
        {
          "internalType": "string",
          "name": "",
          "type": "string"
        }
      ],
      "name": "reports",
      "outputs": [
        {
          "internalType": "string",
          "name": "reportId",
          "type": "string"
        },
        {
          "internalType": "address",
          "name": "issuer",
          "type": "address"
        },
        {
          "internalType": "uint256",
          "name": "epoch",
          "type": "uint256"
        },
        {
          "internalType": "bytes32",
          "name": "reportHash",
          "type": "bytes32"
        },
        {
          "internalType": "bytes32",
          "name": "attestationHash",
          "type": "bytes32"
        },
        {
          "internalType": "string",
          "name": "ipfsCid",
          "type": "string"
        },
        {
          "internalType": "uint256",
          "name": "discrepancyBps",
          "type": "uint256"
        },
        {
          "internalType": "bool",
          "name": "anomalyFlagged",
          "type": "bool"
        },
        {
          "internalType": "uint256",
          "name": "timestamp",
          "type": "uint256"
        },
        {
          "internalType": "address",
          "name": "submitter",
          "type": "address"
        }
      ],
      "stateMutability": "view",
      "type": "function"
    },
    {
      "inputs": [
        {
          "internalType": "address",
          "name": "newOwner",
          "type": "address"
        }
      ],
      "name": "transferOwnership",
      "outputs": [],
      "stateMutability": "nonpayable",
      "type": "function"
    }
  ],
  "bytecode": "0x608060405234801561001057600080fd5b506040516119c23803806119c283398101604081905261002f91610134565b338061005557604051631e4fbdf760e01b81526000600482015260240160405180910390fd5b61005e816100e4565b5060017f9b779b17422d0df92223018b32b4d1fa46e071723d6817e2486d003becc55f0055600480546001600160a01b0319166001600160a01b03831617905533600081815260036020526040808220805460ff19166001179055517fd53649b492f738bb59d6825099b5955073efda0bf9e3a7ad20da22e110122e299190a250610164565b600080546001600160a01b038381166001600160a01b0319831681178455604051919092169283917f8be0079c531659141344cd1fd0a4f28419497f9722a3daafe3b4186f6b6457e09190a35050565b60006020828403121561014657600080fd5b81516001600160a01b038116811461015d57600080fd5b9392505050565b61184f806101736000396000f3fe608060405234801561001057600080fd5b50600436106100cf5760003560e01c80636dbe61b81161008c5780638da5cb5b116100665780638da5cb5b146101f8578063a0438b8d14610209578063a22a18a01461021c578063f2fde38b1461022f57600080fd5b80636dbe61b8146101a8578063715018a6146101bd5780637f6e9d4b146101c557600080fd5b806312e63d71146100d4578063185c6f84146100fd5780633826b1ea146101145780633cdbf33f1461013f5780634925cbcf1461015f57806364cceaef1461017f575b600080fd5b6100e76100e2366004611063565b610242565b6040516100f49190611127565b60405180910390f35b61010660055481565b6040519081526020016100f4565b600454610127906001600160a01b031681565b6040516001600160a01b0390911681526020016100f4565b61015261014d366004611202565b61040f565b6040516100f4919061122e565b61017261016d366004611248565b6104c8565b6040516100f49190611265565b61019261018d3660046112e0565b6105b7565b6040516100f49a99989796959493929190611399565b6101bb6101b6366004611419565b61073b565b005b6101bb610b4a565b6101e86101d3366004611248565b60036020526000908152604090205460ff1681565b60405190151581526020016100f4565b6000546001600160a01b0316610127565b6100e7610217366004611248565b610b5e565b6101bb61022a366004611248565b610e94565b6101bb61023d366004611248565b610ee8565b61024a611010565b6001838360405161025c929190611455565b90815260200160405180910390206040518061014001604052908160008201805461028690611465565b80601f01602080910402602001604051908101604052809291908181526020018280546102b290611465565b80156102ff5780601f106102d4576101008083540402835291602001916102ff565b820191906000526020600020905b8154815290600101906020018083116102e257829003601f168201915b505050918352505060018201546001600160a01b0316602082015260028201546040820152600382015460608201526004820154608082015260058201805460a09092019161034d90611465565b80601f016020809104026020016040519081016040528092919081815260200182805461037990611465565b80156103c65780601f1061039b576101008083540402835291602001916103c6565b820191906000526020600020905b8154815290600101906020018083116103a957829003601f168201915b505050918352505060068201546020820152600782015460ff1615156040820152600882015460608201526009909101546001600160a01b031660809091015290505b92915050565b6002602052816000526040600020818154811061042b57600080fd5b9060005260206000200160009150915050805461044790611465565b80601f016020809104026020016040519081016040528092919081815260200182805461047390611465565b80156104c05780601f10610495576101008083540402835291602001916104c0565b820191906000526020600020905b8154815290600101906020018083116104a357829003601f168201915b505050505081565b6001600160a01b0381166000908152600260209081526040808320805482518185028101850190935280835260609492939192909184015b828210156105ac57838290600052602060002001805461051f90611465565b80601f016020809104026020016040519081016040528092919081815260200182805461054b90611465565b80156105985780601f1061056d57610100808354040283529160200191610598565b820191906000526020600020905b81548152906001019060200180831161057b57829003601f168201915b505050505081526020019060010190610500565b505050509050919050565b80516020818301810180516001825292820191909301209152805481906105dd90611465565b80601f016020809104026020016040519081016040528092919081815260200182805461060990611465565b80156106565780601f1061062b57610100808354040283529160200191610656565b820191906000526020600020905b81548152906001019060200180831161063957829003601f168201915b505050600184015460028501546003860154600487015460058801805497986001600160a01b0390951697939650919450929161069290611465565b80601f01602080910402602001604051908101604052809291908181526020018280546106be90611465565b801561070b5780601f106106e05761010080835404028352916020019161070b565b820191906000526020600020905b8154815290600101906020018083116106ee57829003601f168201915b505050506006830154600784015460088501546009909501549394919360ff90911692506001600160a01b03168a565b610743610f23565b3360009081526003602052604090205460ff166107a75760405162461bcd60e51b815260206004820152601e60248201527f5265706f727452656769737472793a206e6f7420617574686f72697a6564000060448201526064015b60405180910390fd5b60016107b3828061149f565b6040516107c1929190611455565b90815260405190819003602001902080546107db90611465565b1590506108385760405162461bcd60e51b815260206004820152602560248201527f5265706f727452656769737472793a207265706f727420616c72656164792065604482015264786973747360d81b606482015260840161079e565b6000610844828061149f565b9050116108935760405162461bcd60e51b815260206004820152601e60248201527f5265706f727452656769737472793a20656d707479207265706f727449640000604482015260640161079e565b60006108a56040830160208401611248565b6001600160a01b0316036108fb5760405162461bcd60e51b815260206004820152601b60248201527f5265706f727452656769737472793a207a65726f206973737565720000000000604482015260640161079e565b806001610908828061149f565b604051610916929190611455565b90815260405190819003602001902061092f8282611644565b50339050600161093f838061149f565b60405161094d929190611455565b90815260405190819003602001902060090180546001600160a01b03929092166001600160a01b031990921691909117905542600161098c838061149f565b60405161099a929190611455565b908152602001604051809103902060080181905550600260008260200160208101906109c69190611248565b6001600160a01b0316815260208101919091526040016000206109e9828061149f565b82546001810184556000938452602090932090920191610a09918361153c565b5060058054906000610a1a8361171e565b90915550610a3090506040820160208301611248565b6001600160a01b03167fd92d9657ebb2da33a8d0c2fe09b48ff94e4ba988470061d8c4b620b688aec8b7610a64838061149f565b60408501356060860135610a7f610100880160e08901611737565b604051610a9095949392919061177d565b60405180910390a2610aa9610100820160e08301611737565b80610ab8575060008160c00135115b15610b1e57610acd6040820160208301611248565b6001600160a01b03167f53d9345b94aa70d8dec37597622778c0f2ed30d179245665a4faf814128e3519610b01838061149f565b8460c00135604051610b15939291906117b0565b60405180910390a25b610b4760017f9b779b17422d0df92223018b32b4d1fa46e071723d6817e2486d003becc55f0055565b50565b610b52610f51565b610b5c6000610f7e565b565b610b66611010565b6001600160a01b038216600090815260026020908152604080832080548251818502810185019093528083529192909190849084015b82821015610c48578382906000526020600020018054610bbb90611465565b80601f0160208091040260200160405190810160405280929190818152602001828054610be790611465565b8015610c345780601f10610c0957610100808354040283529160200191610c34565b820191906000526020600020905b815481529060010190602001808311610c1757829003601f168201915b505050505081526020019060010190610b9c565b5050505090506000815111610cad5760405162461bcd60e51b815260206004820152602560248201527f5265706f727452656769737472793a206e6f207265706f72747320666f72206960448201526439b9bab2b960d91b606482015260840161079e565b60018160018351610cbe91906117d4565b81518110610cce57610cce6117e7565b6020026020010151604051610ce391906117fd565b908152602001604051809103902060405180610140016040529081600082018054610d0d90611465565b80601f0160208091040260200160405190810160405280929190818152602001828054610d3990611465565b8015610d865780601f10610d5b57610100808354040283529160200191610d86565b820191906000526020600020905b815481529060010190602001808311610d6957829003601f168201915b505050918352505060018201546001600160a01b0316602082015260028201546040820152600382015460608201526004820154608082015260058201805460a090920191610dd490611465565b80601f0160208091040260200160405190810160405280929190818152602001828054610e0090611465565b8015610e4d5780601f10610e2257610100808354040283529160200191610e4d565b820191906000526020600020905b815481529060010190602001808311610e3057829003601f168201915b505050918352505060068201546020820152600782015460ff1615156040820152600882015460608201526009909101546001600160a01b03166080909101529392505050565b610e9c610f51565b6001600160a01b038116600081815260036020526040808220805460ff19166001179055517fd53649b492f738bb59d6825099b5955073efda0bf9e3a7ad20da22e110122e299190a250565b610ef0610f51565b6001600160a01b038116610f1a57604051631e4fbdf760e01b81526000600482015260240161079e565b610b4781610f7e565b610f2b610fce565b60027f9b779b17422d0df92223018b32b4d1fa46e071723d6817e2486d003becc55f0055565b6000546001600160a01b03163314610b5c5760405163118cdaa760e01b815233600482015260240161079e565b600080546001600160a01b038381166001600160a01b0319831681178455604051919092169283917f8be0079c531659141344cd1fd0a4f28419497f9722a3daafe3b4186f6b6457e09190a35050565b7f9b779b17422d0df92223018b32b4d1fa46e071723d6817e2486d003becc55f0054600203610b5c57604051633ee5aeb560e01b815260040160405180910390fd5b604080516101408101825260608082526000602083018190529282018390528082018390526080820183905260a082015260c0810182905260e08101829052610100810182905261012081019190915290565b6000806020838503121561107657600080fd5b823567ffffffffffffffff81111561108d57600080fd5b8301601f8101851361109e57600080fd5b803567ffffffffffffffff8111156110b557600080fd5b8560208284010111156110c757600080fd5b6020919091019590945092505050565b60005b838110156110f25781810151838201526020016110da565b50506000910152565b600081518084526111138160208601602086016110d7565b601f01601f19169290920160200192915050565b602081526000825161014060208401526111456101608401826110fb565b9050602084015161116160408501826001600160a01b03169052565b506040840151606084015260608401516080840152608084015160a084015260a0840151601f198483030160c085015261119b82826110fb565b91505060c084015160e084015260e08401516111bc61010085018215159052565b506101008401516101208401526101208401516111e56101408501826001600160a01b03169052565b509392505050565b6001600160a01b0381168114610b4757600080fd5b6000806040838503121561121557600080fd5b8235611220816111ed565b946020939093013593505050565b60208152600061124160208301846110fb565b9392505050565b60006020828403121561125a57600080fd5b8135611241816111ed565b6000602082016020835280845180835260408501915060408160051b86010192506020860160005b828110156112be57603f198786030184526112a98583516110fb565b9450602093840193919091019060010161128d565b50929695505050505050565b634e487b7160e01b600052604160045260246000fd5b6000602082840312156112f257600080fd5b813567ffffffffffffffff81111561130957600080fd5b8201601f8101841361131a57600080fd5b803567ffffffffffffffff811115611334576113346112ca565b604051601f8201601f19908116603f0116810167ffffffffffffffff81118282101715611363576113636112ca565b60405281815282820160200186101561137b57600080fd5b81602084016020830137600091810160200191909152949350505050565b610140815260006113ae61014083018d6110fb565b6001600160a01b038c166020840152604083018b9052606083018a90526080830189905282810360a08401526113e481896110fb565b60c0840197909752505092151560e08401526101008301919091526001600160a01b0316610120909101529695505050505050565b60006020828403121561142b57600080fd5b813567ffffffffffffffff81111561144257600080fd5b8201610140818503121561124157600080fd5b8183823760009101908152919050565b600181811c9082168061147957607f821691505b60208210810361149957634e487b7160e01b600052602260045260246000fd5b50919050565b6000808335601e198436030181126114b657600080fd5b83018035915067ffffffffffffffff8211156114d157600080fd5b6020019150368190038213156114e657600080fd5b9250929050565b601f82111561153757806000526020600020601f840160051c810160208510156115145750805b601f840160051c820191505b818110156115345760008155600101611520565b50505b505050565b67ffffffffffffffff831115611554576115546112ca565b611568836115628354611465565b836114ed565b6000601f84116001811461159c57600085156115845750838201355b600019600387901b1c1916600186901b178355611534565b600083815260209020601f19861690835b828110156115cd57868501358255602094850194600190920191016115ad565b50868210156115ea5760001960f88860031b161c19848701351681555b505060018560011b0183555050505050565b60008135610409816111ed565b80546001600160a01b0319166001600160a01b0392909216919091179055565b8015158114610b4757600080fd5b6000813561040981611629565b61164e828361149f565b61165981838561153c565b505061167361166a602084016115fc565b60018301611609565b60408201356002820155606082013560038201556080820135600482015561169e60a083018361149f565b6116ac81836005860161153c565b505060c082013560068201556116e06116c760e08401611637565b6007830160ff1981541660ff8315151681178255505050565b61010082013560088201556117046116fb61012084016115fc565b60098301611609565b5050565b634e487b7160e01b600052601160045260246000fd5b60006001820161173057611730611708565b5060010190565b60006020828403121561174957600080fd5b813561124181611629565b81835281816020850137506000828201602090810191909152601f909101601f19169091010190565b608081526000611791608083018789611754565b6020830195909552506040810192909252151560609091015292915050565b6040815260006117c4604083018587611754565b9050826020830152949350505050565b8181038181111561040957610409611708565b634e487b7160e01b600052603260045260246000fd5b6000825161180f8184602087016110d7565b919091019291505056fea264697066735822122019cd364017d8eb73526c3fba4283b0d6a16ab998c5ca9b772f8242dc42ccc48c64736f6c634300081a0033",
  "linkReferences": {},
  "deployedLinkReferences": {}
}